:020000021000EC
:1080000000400020DD880100198901001B89010062
:108010000000000000000000000000000000000060
:108020000000000000000000000000001D890100A9
:1080300000000000000000001F89010021890100EC
:1080400023890100238901008D8A01002389010011
:108050002389010000000000238901002389010019
:10806000238901005D8B0100238901002389010020
:10807000238901002389010023890100238901004C
:10808000238901002389010023890100238901003C
:10809000238901002389010023890100238901002C
:1080A0002389010023890100000000000000000076
:1080B00000000000000000000000000000000000C0
:1080C00010B5064C2378002B07D1054B002B02D0AE
:1080D000044800E000BF0123237010BD842000206D
:1080E00000000000F4E10100044B10B5002B03D0A8
:1080F0000349044800E000BF10BDC0460000000076
:1081000088200020F4E10100164B002B00D1144B15
:108110009D46402292029A1A924600218B460F46B3
:108120001348144A121A01F063FD0F4B002B00D0C4
:1081300098470E4B002B00D09847002000210400E8
:108140000D000D48002802D00C4800E000BF00F0F0
:108150009FFF2000290001F042FC00F083FFC04691
:1081600000000800004000200000000000000000A7
:1081700084200020582100200000000000000000A2
:1081800010B50400034B0360403001F0BBFA20003F
:1081900010BDC046D49D010070B5A123A0240825C0
:1081A000E405DB00E550322001F049FC024B3220AF
:1081B000E55001F044FC70BD0C050000F8B5A026A8
:1081C000050006240127F60504233D420AD0A1221A
:1081D000D200B350013CFFF7DFFF6D08002CF3D154
:1081E0002000F8BD004AF4E70C050000F8B5A02611
:1081F000102501278404640CF60504233C420AD0B0
:10820000A122D200B350013DFFF7C6FF6408002D44
:10821000F3D12800F8BD014AF4E7C0460C05000080
:10822000F8B5A024A1230226E405DB00E6500823CC
:108230000F4D01206351043B635101F000FC665176
:10824000FA2001F0FCFB0B4F1E36012204231742DB
:108250000CD0A122D200A350013EFFF79DFF7F0862
:10826000002EF2D1FFF798FF3000F8BD6351F3E71D
:108270000C0500005048434DF8B50420FFF79EFF61
:108280000A2001F0DCFBA025E1230024DB00ED0542
:10829000EC50FFF781FF0E26A1230827DB00EF50EB
:1082A000322001F0CCFB0D4B6408EF500433EB5847
:1082B0005B0703D580239B011C43A4B23220013EFF
:1082C00001F0BDFB002EE7D1FFF766FFA022E123FE
:1082D0000321D205DB002000D150F8BD0C050000C1
:1082E000A023E8210322F0B5DB05C900694D5A50EF
:1082F00038395A515A50A1210220C90058506649B4
:1083000087B05A50FFF78CFF002001F0B2F9062029
:1083100001F0C5F9FFF7B0FF049001F0CBF901F0CF
:10832000E8F900235D4C03930293009305955C4F9D
:108330005C49380001F0BBFA668823883604F618D9
:10834000E388A2881B049B1875085B082A0056491D
:108350003800019301F0ABFA544B9E427BD8009B4E
:10836000AB4227D20026EF1A013601F08FF9B7424F
:10837000FAD12600019B0836EB1800930F27009BCB
:108380002F409D4222D0002F01D101F0B2F9308858
:1083900001F0A2F90F2F01D101F095F9328844497B
:1083A0003F4801F084FA013501F070F90236E5E743
:1083B000009DDEE7009BAB42FAD901F07BF9002675
:1083C000AE42D6D001F062F90136F9E7002F01D0B4
:1083D00001F079F93749324801F069FA019B3649D1
:1083E00004335B00E4182E48270001F060FA2600F1
:1083F00020372B4D328831492800023601F057FAD8
:10840000B742F6D12B49280001F051FA22882C4BB3
:108410009A428CD1A023A1220221DB05D2009950DF
:108420000022059928005A50E121C9005A50049AA7
:10843000244901F03CFA029A2349280001F037FA56
:10844000039A2249280001F032FA009A20492800B4
:1084500001F02DFAFEE71F4B9D42BFD1002001F035
:1084600008F9072001F01BF9208901F035F901F026
:108470002AF9FFF701FF029001F008F980236089D3
:108480009B01184301F028F901F01DF9FFF7F4FEF4
:108490000390A3E70C070000040700000C9F0100F5
:1084A000A02000200CDF010013DF0100FD0F000001
:1084B0003BDF010010DF010043DF01003CDF010072
:1084C000FECA000054DF010067DF01007ADF01000F
:1084D0008DDF010007800000142313B5064C0093C4
:1084E00019221821200000F055F8044A0449200000
:1084F00001F03EFB13BDC046A0200020002000205C
:1085000081810100014B03607047C046DC9D010082
:1085100010B50548054C206001F029F9044A0549C9
:10852000200001F025FB10BDDC9D01000021002092
:10853000002000200597010010B5054C0121200006
:1085400001F009F9034A0449200001F011FB10BDB4
:10855000042100200020002013970100074A10B5D5
:108560000123904208D0984202D00023C20703D4CE
:108570001E2000F043F80023180010BDFFFF00008C
:1085800010B5002903DB024B196001F0DBF910BDC7
:108590000821002070B504001E0004AB1D7800F017
:1085A0006DF920000E4B40302360FFF7ABFF230036
:1085B00001364C33013522001E701D730023E1216A
:1085C0004E32A3646365138053809381D381013B52
:1085D000200063644902FFF7D3FF200070BDC0464E
:1085E000D49D0100BFF34F8F024B034ADA60BFF303
:1085F0004F8FFEE700ED00E00400FA05F0B595B0FE
:108600001822002106000EA801F0F2FA13210EA88C
:1086100001F0CBF903210EA801F023FA464B1B68A9
:10862000002B00D10133DBB20093444A0123002127
:1086300009A800F08FF9424B9E4200D9002672B67D
:10864000404B64211D68404B30000593052400F029
:108650000FFC60435030281806900A21300000F0CB
:1086600007FC0A2100F0EAFC6143503169180791C8
:1086700030000A2100F0E2FC8026614300245031E2
:1086800069180891B601009B002B52D004AD002759
:10869000032C02D180260024B6016B682B4A02937A
:1086A0006300D3180022019258780299095C039163
:1086B00019788C461021604601410398014204D08C
:1086C0000120904001990143019101320633092AAA
:1086D000EAD1019B2A68D9431D4B09011940029B2D
:1086E000934224D1312F22DC002109A801F000FAA5
:1086F000FA23139A0F99DB001068014219D0013B4D
:10870000002BF9D1FA23013401377600E4B25B0083
:108710009F42BDD1043508ABAB42B8D1064B1B68B4
:10872000002BB0D0009B013BDBB20093ABE73143A1
:10873000DBE7FFF757FFC0460C210020F0FF0000E9
:10874000E703000004200020E0DF0100AADF0100B1
:10875000F01F0000034B1A68034B1A607E225A6018
:108760007047C046042000201021002070B5114E33
:108770003278022A1AD081421AD90C1A072C17D93A
:108780000D00032305432B4012D172B60A4DD200CF
:108790005051AA1851608022A408120614430460A4
:1087A00032780132327062B6180070BD0348FCE7BF
:1087B0000348FAE7492100201821002013FCFFFF9D
:1087C00017FCFFFF70B5134C06002378124D002BE9
:1087D0000CD1124912482B70FFF7C8FF114B984279
:1087E00002D11E20FFF70AFF0123237000242B78FB
:1087F000A34209DD0C49E300C918300000F0D4FFA2
:10880000002805D10134F2E71420FFF7F7FE00201D
:1088100070BDC046482100204921002000380020BA
:108820005821002017FCFFFF1821002010B5002858
:1088300017D000220F4B19780F4B914215DD1C68A1
:1088400084420FD25C6884420CD9041F2368002B39
:1088500002DC1E20FFF7D2FE802322681B06134392
:10886000236010BD01320833E7E71E20FFF7C6FE84
:10887000F7E7C046492100201821002010B5040068
:1088800000F006F8014B2000236010BDEC9D0100B4
:108890000C4B70B50360002343608360C3600362C8
:1088A00043628363962304009B01051DC363280074
:1088B00000F080F828002200034900F00DF92000A4
:1088C00070BDC046FC9D01000D99010010B5024825
:1088D00001F093F810BDC046049E010008480268EC
:1088E00003210A4302600749074A084B9B1A03DD2C
:1088F000043BC858D050FBDC05488047054800477A
:108900002405004000E20100002000208420002017
:10891000A58C010009810100FEE7FEE7FEE7FEE706
:10892000FEE7FEE701704B1C0AD001238B40436039
:10893000044BC360044B0361044B4361044B8360ED
:108940007047C046080500500C0500501005005047
:10895000140500500261064A10B54260054A0173D1
:108960008260054A1900026001F09FF810BDC04600
:10897000040500501005005000070050012310B5F9
:108980000A4ADC0014598C4207DD013BDB00D31896
:108990005A680168064BCA5010BD0133112BF0D143
:1089A00080210268024B4905D150F5E7209E010065
:1089B00024050000F8B50F0016000122244BBA4030
:1089C0000360A023234CDB05195905000A431A5103
:1089D0008022195912060A430121B1401A511A592D
:1089E0008A4396211A511A598901520052081A5184
:1089F000FFF7C4FF002204202B6817495A506C3936
:108A000058500121996019601900FC31CA6013495E
:108A10005A506A6014391F325A5011495F50091870
:108A20005A501E517B1C03D00321380001F02DF851
:108A3000731C03D00321300001F027F80122094BF9
:108A400029001A600848073201F0C9F8F8BDC0468D
:108A500000200040140500006C0500001C0500000B
:108A60000C050000382100204C210020962310B571
:108A7000DB00994202DDFFF781FF10BD9E210268F5
:108A8000014BC902D150F8E724050000C1230E4A6A
:108A90009B00D15810B5090603D50C49096A002975
:108AA00008D1D3585B0704D5084B0021DB68002BA5
:108AB00001D110BD0121064B18680028F9D0054BE3
:108AC0001B689847F5E7C04600200040FC200040A6
:108AD0003421002030210020034B196043680349F2
:108AE0009B005A507047C04630210020342100209E
:108AF00003681A00FC32106A0128FCD100201062C1
:108B0000014AC9B2995070471C050000012310B5F5
:108B10000D4C0E49A36480239B00CB670C490D4A82
:108B2000086D002804D0002008651168013111602B
:108B300009490B60A923DB001068E358010C9BB2C4
:108B40000004184310BDC0460090004004E100E05E
:108B5000FC9000403C21002000E100E0F8B50F4C03
:108B6000636C002B0FD000270D4E67643378BB4237
:108B700009D00C4B1D68FFF7C9FF2D1ABD4202DC5E
:108B80003770FFF7A3FE236D002B05D0064A13684C
:108B90000133136000232365F8BDC046FC900040FC
:108BA0004A210020402100203C21002070B51B4DAF
:108BB0002878002831D10121194B1A4A5960506098
:108BC0008020C005016051680029FCD000221649B0
:108BD000A2205A5004240121C000D9601C5008383A
:108BE0001A501248C2261A50C12280209200000357
:108BF00098508020400298500D4AB60090590D4C74
:108C00000440C020000220439051C0248020640012
:108C10008000105110601960297070BD4B21002038
:108C200000900040FC000040040500004C050000DE
:108C300000E100E0FF00FFFF044B10B51B78002BA4
:108C400001D1FFF7B3FFFFF761FF10BD4B210020FB
:108C5000104B70B51B780400002B01D1FFF7A6FF65
:108C60000D4D0E4E2B78002B02D03368A34210D04E
:108C7000FFF74CFF201A0A2803DCFFF747FF0A30F2
:108C8000040001232B70A823054A3460DB00A4B242
:108C9000D45070BD4B2100204A21002040210020EB
:108CA0000090004070B5224C2368DBB2012B03D149
:108CB0002048026813070DD08022A3230021D2058B
:108CC000DB00D1501C4B9960013191609A68002AF9
:108CD000FCD070BD1949F0230A68E02615001D403C
:108CE000324221D1164A12681A420DD1154B164A4A
:108CF0001A608022154B12021A602368DBB2012B26
:108D0000DAD103681B07D7D1F0220B681340402B40
:108D1000D2D10B4B1B681342CED18022C12301213B
:108D2000D205DB00D150C7E7302DDBD0ECE7C046E1
:108D3000E00F00F0E40F00F0FC000040E80F00F04E
:108D4000EC0F00F004050040DFFF07C0186C004086
:108D5000014B18687047C046442100200022430898
:108D60008B4274D303098B425FD3030A8B4244D3F3
:108D7000030B8B4228D3030C8B420DD3FF22090235
:108D800012BA030C8B4202D31212090265D0030BF4
:108D90008B4219D300E0090AC30B8B4201D3CB03EA
:108DA000C01A5241830B8B4201D38B03C01A52412C
:108DB000430B8B4201D34B03C01A5241030B8B422E
:108DC00001D30B03C01A5241C30A8B4201D3CB0219
:108DD000C01A5241830A8B4201D38B02C01A5241FE
:108DE000430A8B4201D34B02C01A5241030A8B4201
:108DF00001D30B02C01A5241CDD2C3098B4201D319
:108E0000CB01C01A524183098B4201D38B01C01A96
:108E1000524143098B4201D34B01C01A524103090D
:108E20008B4201D30B01C01A5241C3088B4201D3BC
:108E3000CB00C01A524183088B4201D38B00C01A69
:108E4000524143088B4201D34B00C01A5241411A90
:108E500000D20146524110467047FFE701B500209D
:108E600000F0F0F802BDC0460029F7D076E7704761
:108E700003460B437FD4002243088B4274D303097B
:108E80008B425FD3030A8B4244D3030B8B4228D31C
:108E9000030C8B420DD3FF22090212BA030C8B4242
:108EA00002D31212090265D0030B8B4219D300E0E2
:108EB000090AC30B8B4201D3CB03C01A5241830B67
:108EC0008B4201D38B03C01A5241430B8B4201D317
:108ED0004B03C01A5241030B8B4201D30B03C01A40
:108EE0005241C30A8B4201D3CB02C01A5241830ABA
:108EF0008B4201D38B02C01A5241430A8B4201D3E9
:108F00004B02C01A5241030A8B4201D30B02C01A12
:108F10005241CDD2C3098B4201D3CB01C01A524179
:108F200083098B4201D38B01C01A524143098B4202
:108F300001D34B01C01A524103098B4201D30B01EB
:108F4000C01A5241C3088B4201D3CB00C01A524110
:108F500083088B4201D38B00C01A524143088B42D5
:108F600001D34B00C01A5241411A00D2014652416E
:108F7000104670475DE0CA0F00D04942031000D38D
:108F80004042534000229C4603098B422DD3030AE2
:108F90008B4212D3FC22890112BA030A8B420CD3F2
:108FA000890192118B4208D3890192118B4204D31B
:108FB00089013AD0921100E08909C3098B4201D39B
:108FC000CB01C01A524183098B4201D38B01C01AD5
:108FD000524143098B4201D34B01C01A524103094C
:108FE0008B4201D30B01C01A5241C3088B4201D3FB
:108FF000CB00C01A524183088B4201D38B00C01AA8
:109000005241D9D243088B4201D34B00C01A52417E
:10901000411A00D20146634652415B10104601D30B
:109020004042002B00D54942704763465B1000D395
:10903000404201B5002000F005F802BD0029F8D03B
:1090400016E770477047C04610B504000448130087
:10905000002804D00A000220210000E000BF10BD5B
:1090600000000000084B10B50400002B02D00021C6
:1090700000E000BF054B1868836A002B00D09847BA
:10908000200000F0B4FCC04600000000089F010072
:1090900070B500260C4D0D4C641BA410A64209D1DE
:1090A000002600F087FE0A4D0A4C641BA410A6425D
:1090B00005D170BDB300EB5898470136EEE7B30019
:1090C000EB5898470136F2E76C2000206C20002016
:1090D0006C2000208020002010B5034B0100186890
:1090E00000F08EFD10BDC04608200020002370B5A2
:1090F000064C050008001100236000F0A9FA431C8B
:1091000003D12368002B00D02B6070BD54210020B8
:1091100007B5009313000A0001000248006800F040
:109120009DFD0EBD0820002000B59BB0009104916C
:1091300006490591029106490391694600F078F8C5
:109140000023009A13701BB000BDC046FFFFFF7FD5
:109150000802FFFF10B513000A0001000248006872
:10916000FFF7E2FF10BDC04608200020F0B58E6872
:1091700085B007000C00039201939E423CD89023D7
:109180008A89DB001A4234D00325096923685B1AF7
:109190000293636902985D43EB0F5D19019B6D10AB
:1091A00001331B18AB4200D91D00530532D52900ED
:1091B000380000F054FB061E09D10C233B6040230D
:1091C0000120A28940421343A38105B0F0BD029A59
:1091D000216900F004FDA389144A1A408023134337
:1091E000A381029B2661F61826606561019EED1A37
:1091F000A560019B9E4200D9019E32000399206820
:1092000000F0C4FDA36800209B1BA36023689E1987
:109210002660DAE72A00380000F02BFB061EE0D1BA
:109220002169380000F020FBC7E7C0467FFBFFFF45
:10923000F0B5A1B003901D008B890F0016001B062E
:1092400011D50B69002B0ED1402100F008FB3860CE
:109250003861002805D10C23039A0138136021B02E
:10926000F0BD40237B61002308AC6361203363764B
:109270001033A376079535002B78002B01D0252BD2
:1092800046D1AB1B05930CD0320039000398FFF791
:109290006DFF431C00D1AEE06269059B94466344B8
:1092A00063612B78002B00D1A5E0012200235242FC
:1092B000626004A9543252186E1C2360E360A360FC
:1092C0001370A36531780522534800F07DFC751CAE
:1092D00000281FD12268D30604D5532304A95B18A4
:1092E00020211970130704D5532304A95B182B21DF
:1092F000197033782A2B16D0350000210A20E36834
:109300002A786E1C303A092A4ED9002911D117E06B
:109310000135B1E7404B2268C01A01238340134353
:1093200023602E00CEE7079B191D1B680791002BB9
:1093300001DB0B9304E05B42E360022313432360F1
:109340002B782E2B0AD16B782A2B35D1079B02352F
:109350001A1D1B680792002B2BDB09932F4E2978CF
:109360000322300000F030FC002806D04023801B90
:109370008340226801351343236029780622284858
:109380006E1C217600F020FC00283CD0254B002BE1
:1093900025D10722079B073393430833079363695B
:1093A000049A9B18636166E7434301219B183500CB
:1093B000A6E701235B42D0E700230A201A0001350B
:1093C000636029786E1C3039092903D9002BC5D078
:1093D0000992C3E74243012352183500F1E707AB76
:1093E00000933A00104B2100039800E000BF049066
:1093F000049B0133D3D1BB890D985B0600D42EE7C3
:10940000012040422BE707AB00933A00064B2100B6
:10941000039800F00BF8EAE7C0E10100C6E10100A3
:10942000CAE10100000000006D910100F0B58BB0B1
:1094300006920A0043320793059004920A7E0C00BC
:10944000109B6E2A00D1AFE020D8632A35D008D80F
:10945000002A00D1B5E0582A51D026004236327099
:1094600032E0642A01D0692AF7D1196820680A1D00
:1094700005062BD50D681A60002D03DA2D23049AFA
:109480006D4213706C4B0A27039352E0732A00D18C
:109490009BE008D86F2A1FD0702ADED120220968ED
:1094A0000A43226003E0752A16D0782AD5D122001B
:1094B000782145321170614A24E026001A6842364C
:1094C000111D19601368337001238CE00D681A6058
:1094D0004106D1D52DB2CFE719682568081D18605F
:1094E0002E0601D50D6803E06D06FBD50D68ADB203
:1094F000514B0A2703936F2A17D1082715E04531EE
:109500000A704D4A03921A68216820CA1A60080638
:1095100044D5CB0702D52023194321601027002D05
:1095200003D1202322689A43226023000022433380
:109530001A706368A360002B03DB04222168914347
:109540002160002D02D1049E002B0AD0049E390018
:109550002800FFF789FC039B013E5B5C3370AF4240
:1095600020D9082F09D12368DB0706D56368226953
:10957000934202DC3023013E3370049B9B1B23612A
:10958000079B09AA00932100069B059800F091FB18
:10959000431C2DD1012040420BB0F0BD4806B8D588
:1095A000ADB2B6E70500D2E71A680D68101D49692B
:1095B000186013682E0601D5196002E06D06FBD510
:1095C00019800023049E2361DAE71A68111D1960CF
:1095D000166800216268300000F0F6FA002801D019
:1095E000801B6060636823610023049A1370C7E7DF
:1095F0002369320006990598079DA847431CC9D0E6
:1096000023689B0715D4099BE0689842C4DA1800C8
:10961000C2E722000123193206990598079EB04738
:10962000431CB7D00135E368099A9B1AAB42F0DCC2
:10963000E9E70025F7E7C046D1E10100E2E10100DA
:1096400058220120014B40421A60704754210020EB
:1096500058220120014B40421A60704754210020DB
:1096600010B50400FEF78CFD200000F088FA200001
:1096700010BD10B504000020FEF7A0FD0A2000F088
:10968000DEF92000FEF7B2FD002010BD10B5062067
:10969000FEF794FD0A2000F0D2F9002010BD70B54D
:1096A00005000024A54203DDFFF7F0FF0134F9E7D0
:1096B000002070BD10B51620FEF780FD0A2000F0D6
:1096C000BEF9002010BD10B50820FEF777FD05207B
:1096D00000F0C0F9002010BD10B504000220FEF714
:1096E0006DFD0A2000F0ABF92000FEF77FFD0020A1
:1096F00010BD10B51120FEF761FD032000F0AAF99E
:10970000002010BD10B50400006800F03BF82000F8
:1097100010BD10B50400006800F034F8200010BD42
:10972000F8B5D443E4171440050020000C301F00A6
:109730000E00FFF747F8286000F016F82B681C723F
:109740002B685F60002E05D02868220009303100A8
:1097500000F045FAF8BD002310B504000A00190016
:10976000FFF7DEFF200010BD03230380704710B514
:1097700004000088FEF7F2FE002802D1238802339D
:10978000238010BD10B504000088FEF7E7FE002816
:1097900005D12388023B9BB2012B01D0238010BD51
:1097A0002000FFF743F8FAE7F0B58208830703D1FA
:1097B000031E02D11800F0BD0132541C72B680267F
:1097C00021C93606854225D90368002B02DB9B00A0
:1097D000C018F7E75B005B08990041180F68002F7D
:1097E00008DA8D4206D931007F007F08DB19194362
:1097F0000160F1E7A342EAD302329A4203D2920017
:109800008218954209D803685B005B08036062B662
:10981000031DCFE762B60023CCE7191B80231B068C
:10982000043A0B4313600460F1E770B504000800CC
:109830000E00FEF7C7FF0500002C0ED000280CD04C
:10984000231F1A689200B24200DD32002100280076
:1098500000F0C5F92000FEF7E9FF280070BD10B543
:109860000800FEF7AFFF10BD10B50800FEF7DEFFE1
:1098700010BD10B508001100FFF7D7FF10BD7047ED
:1098800010B5040000F07BF9200010BD10B500F009
:1098900061F810BD70B505000C002178002904D0D6
:1098A00028000134FFF7F2FFF7E7080070BD0EB49F
:1098B0000021F0B5A0B025AB20CB06002A0008009F
:1098C0000193FFF725FC040077280EDC2900019A9C
:1098D00002A8FFF73FFC02A93000FFF7DBFF2000E2
:1098E00020B0F0BC08BC03B01847013000F04BF9C1
:1098F0000700019A2900FFF72DFC39003000FFF71F
:10990000C9FF380000F043F9E9E7704718234A1C03
:109910005A43594382189268431810B5DB68002AED
:1099200003D1002B00D0984710BD002BFCD0103184
:10993000411818009047F7E710B5040000F01FF930
:10994000200010BD70B50D0004000430FFF78EF844
:10995000E56370BD10B50C000430FFF7C9F82000B6
:1099600010BD70B50D0004001600FEF7DBFF6B1C88
:1099700007D00021200000F07AF83100200000F02C
:1099800070F870BD70B5436804000D00002A0AD05D
:10999000C26813602000012100F069F8290020004E
:1099A00000F05FF870BD0269F3E710B50322FFF71E
:1099B000D8FF10BD70B50D0004001600FEF7B2FF11
:1099C0006B1C04D0320000212000FFF7DBFF70BDCC
:1099D00010B50022FFF7EEFF10BD7047704710B5BD
:1099E000FFF7FCFFFFF7F9FFFEF77AFC10BD10B59B
:1099F000002801D000F088F8FEE7036870B5DB6846
:109A00000400984763685A682368002A02D19B685B
:109A1000984770BD5B681568984763682D1A5A6847
:109A2000002D07DC916859601B68002BEAD0506854
:109A30009847E7E7236810681B699847E9E770B51E
:109A40000400FFF7F9F80500FFF7F6F8401BA04205
:109A5000FAD370BDFA2310B59B005843FFF7EFFF10
:109A600010BD10B5007840B200F00FF810BD00290D
:109A700002D0012900D070470023A022C356D2058E
:109A8000C133FF339B009950F5E7A0238000DB052D
:109A9000C018E02310B50C24DB00C2588900A24393
:109AA000C250C2581143C15010BD30B5002902D078
:109AB00001290FD030BD01220C0013008B40056935
:109AC0001D4203D005688B00EB181C6001311F2973
:109AD000F3D1EFE700230A009A400469144203D04F
:109AE00004689A00A218116001331F2BF3D1E1E73B
:109AF0000B00426810B51468016963401940614069
:109B0000116010BD7047704710B59AB0032102A8CC
:109B1000FFF75EFF022108A8FFF75AFF01210EA8F8
:109B2000FFF756FF102114A8FFF752FF9624059B5C
:109B3000039A20001A60099A0C9B1A600F9A129BD4
:109B40001A60159A179B01921A60FFF783FF069B14
:109B5000039A20001A60099A0B9B1A600F9A119BB6
:109B600001921A60159A189B1A60FFF773FFDEE7DF
:109B70000B0010B501001800FFF766FA10BD10B514
:109B8000FEF754FE10BD10B500F005F810BD10B57D
:109B9000FFF7F5FF10BD10B5041E00D10134200001
:109BA000FEF710FE002807D1FFF7D2F8002801D1F8
:109BB00000F003F88047F2E710BD10B50620FFF76C
:109BC0008BFA0120FFF713FFC9B28218904201D12E
:109BD0000020704703788B42FBD00130F6E700236A
:109BE00010B59A4200D110BDCC5CC4540133F8E7E3
:109BF00003001218934200D1704719700133F9E73E
:109C000070B504000D001F2904D91623036001203C
:109C1000404270BD436C002B04D08A009B181A6828
:109C2000002A08D1200000F015F82A0001002000C9
:109C3000FFF75CFAEDE70020012AEAD0511C03D1BE
:109C4000162301302360E4E7002428001C609047BD
:109C50002000DEE710B5FFF7F3FC10BD30B51400AF
:109C60009BB005001A00002C05DA8B23036001204D
:109C700040421BB030BD822368469B008381002395
:109C8000009104919C4200D0631E0293059301232E
:109C900069465B42CB8128001E9BFFF7C9FA431C33
:109CA00001DA8B232B60002CE3D00023009A137081
:109CB000DFE7F7B5150001938A680B6900900C0087
:109CC000934200DA130022002B6043321278002AFC
:109CD00001D001332B6023689B0602D52B68023329
:109CE0002B60062723681F4027D0230043331B78AF
:109CF0005A1E93412268920630D4220001994332C1
:109D00000098089EB047431C25D0062320682A6887
:109D1000E16803400025042B03D18D1AEB43DB17C8
:109D20001D40A3682269934201DD9B1AED180027AC
:109D3000BD4220D1002010E00137E3682A689B1A59
:109D4000BB42D2DD22000123193201990098089EFE
:109D5000B047431CF0D101204042FEBD3020E11845
:109D60004331087021005A1C45310978A21843324A
:109D700002331170C1E7220001231A3201990098C1
:109D8000089EB047431CE6D00137D1E710B58842A2
:109D900002D98B18984203D3002307E08B5C8354CD
:109DA000013AFBD210BDCC5CC45401339A42FAD1C3
:109DB000F8E70000F8B5C046F8BC08BC9E467047FE
:109DC000F8B5C046F8BC08BC9E46704700000000CD
:109DD000000000008181010061960100FFFF00008A
:109DE0000000000000000000000000007F9801005B
:109DF0008198010000000000000000000B990100A4
:109E0000399901000C9E010028210020AD8B010032
:109E1000398C0100059B0100079B0100518C01005A
:109E2000B004000000F004006009000000D0090048
:109E3000C012000000B01300802500000050270071
:109E40004038000000003B00004B000000A04E0026
:109E50008070000000F07500127A000000008000A1
:109E60000096000000509D0000E1000000F0EB00B3
:109E7000002C010000903A0100C2010000E0D7016F
:109E80000084030000B0AF0390D003000000000482
:109E90000008070000705F0700100E00A4DFBE0E70
:109EA00040420F0000000010000000000000000011
:109EB00000000000000000000000000000000000A2
:109EC0000000000000000000000000000000000092
:109ED0000000000000000000000000000000000082
:109EE0000000000000000000000000000000000072
:109EF0000000000000000000000000000000000062
:109F000000000000000000000C200020FECAFECA75
:109F1000FECAFECAAAAAAAAAAAAAAAAAAAAAAAAAB9
:109F2000AAAAAAAAAAAAAAAAAAAAAAAAAAAAAAAA91
:109F3000AAAAAAAAAAAAAAAAAAAAAAAAAAAAAAAA81
:109F4000AAAAAAAAAAAAAAAAAAAAAAAAAAAAAAAA71
:109F5000AAAA0000000000000000000000000000AD
:109F600000000000000000000000000000000000F1
:109F700000000000000000000000000000000000E1
:109F800000000000000000000000000000000000D1
:109F900000000000000000000000000000000000C1
:10DF00000000000000000000000000004C4F433003
:10DF10000D0A00776F726453746172742025302E7D
:10DF200038582020776F72644C656E2025302E386B
:10DF3000582020646174613A2020002025302E345E
:10DF40005820000D0A70726F674D656D5074725BDA
:10DF50005D3A2000494420202020202020307825D0
:10DF6000302E34580A0D00434F4E46494731202089
:10DF7000307825302E34580A0D00434F4E4649471D
:10DF8000322020307825302E34580A0D00656E641A
:10DF900020776F726420616464726573733A202025
:10DFA000307825302E38580A0D0000000402020493
:10DFB0000200000204040400020200040403010041
:10DFC0000001030303000101020303040201010332
:10DFD0000104030100030000040101020000030228
:10DFE0001B1B000E11000000000008080800080AB2
:10DFF0004A4000000A5FEA5FEA0ED92ED36E19325A
:10E000004489330C924C924D0808000000048808A3
:10E0100008040804848488000A448A4000048EC4EA
:10E0200080000000048800000EC00000000008000E
:10E0300001224488100C9252524C048C84848E1C11
:10E04000824C901E1EC244924C06CA525FE21FF0E0
:10E050001EC13E02448ED12E1FE24488100ED12EE6
:10E06000D12E0ED12EC488000800080000048004C0
:10E07000880244880482000EC00EC00804824488CE
:10E080000ED126C0040ED135B36C0C925ED2521C58
:10E09000925C925C0ED010100E1C9252525C1ED0FC
:10E0A0001C901E1ED01C90100ED013712E12525EAA
:10E0B000D2521C8808081C1FE242524C1254981479
:10E0C00092101010101E113B75B131113935B3711A
:10E0D0000C9252524C1C925C90100C92524C861C2A
:10E0E000925C92510ED00C825C1FE48484841252A4
:10E0F00052524C1131312A44113135BB7112524CFC
:10E100009252112A4484841EC488101E0EC8080826
:10E110000E10080482410EC242424E048A400000A2
:10E12000000000001F0804800000000ED2524F10B3
:10E13000101C925C000ED0100E02424ED24E0C9279
:10E140005C900E06C81C88080ED24EC24C10101CE3
:10E1500092520800080808024002424C1014981419
:10E16000920808080806001B75B131001C92525233
:10E17000000C92524C001C925C90000ED24EC200D9
:10E180000ED010100006C8049808080EC807001228
:10E1900052524F0011312A4400113135BB00124C4C
:10E1A0008C9200112A4498001EC4881E06C48C84D8
:10E1B00086080808080818080C881800000C8360F6
:10E1C000232D302B2000686C4C0065666745464760
:10E1D00000303132333435363738394142434445E3
:10E1E0004600303132333435363738396162636452
:08E1F00065660000000000005C
:08E1F800109FFF7F01000000F1
:10E2000000000000E5DF01000C20002000000000FD
:10E21000C89E0100E89E0100A89E010000000000C9
:10E2200000000000000000000000000000000000EE
:10E2300000000000000000000000000000000000DE
:10E2400000000000000000000000000000000000CE
:10E2500000000000000000000000000000000000BE
:10E26000000000000000000000000000E980010044
:10E27000D98401001185010039850100558701000D
:04E28000C180010058
:04000003100088DD84
:00000001FF
